:020000040000FA
:100000000C94EA010C941B020C941B020C941B022E
:100010000C941B020C941B020C941B020C941B02EC
:100020000C941B020C941B020C941B020C941B02DC
:100030000C941B020C941B020C941B020C941B02CC
:100040000C941B020C941B020C941B020C941B02BC
:100050000C941B020C941B020C941B020C94E007E2
:100060000C941B020C94FC080C94D2080C941B02F8
:100070000C941B020C941B020C941B020C941B028C
:100080000C941B020C941B020C941B020C941B027C
:100090000C94A8080C947E080C941B020C941B0270
:1000A0000C941B020C941B020C941B020C941B025C
:1000B0000C941B020C941B020C941B020C941B024C
:1000C0000C941B020C941B020C941B020C945408FD
:1000D0000C942A080C941B020C941B020C941B0217
:1000E0000C941B020C94AC020C947E040C949402AD
:1000F0000C94C4020C94C6040C9487050C9432052D
:100100000C9485020C94BF040C94A9050C947F02F6
:100110000C94B2020C9478050C94AB040C94260950
:100120000C94BA020C9491020C949A040C946106FB
:100130000C94B5040C9489020C94C0020C94B60281
:100140000C949A020C949B050C948D020C94A402BE
:100150000C94F5050C949E020C94BF020C94A8021A
:100160000C94C204415641494C41424C4500424F17
:100170004F4B454400415641494C41424C45004299
:100180004F4F4B454400534541542C005345415477
:100190002C0000002100240027002A002D00300040
:1001A000330001010000040107010A012C4F4646FB
:1001B0004C494E4500534541542C002C4F46464C6B
:1001C000494E4500534541542C0052656164793ACB
:1001D00020736561747320312D35206F6E6C696EEC
:1001E000653B20736561747320362D36312072654E
:1001F000706F72746564206F66666C696E652E0040
:10020000617661696C61626C65006F6363757069CA
:100210006564003A2000202D3E2073656174200043
:10022000204348004D555820004446506C61796584
:1002300072206E6F7420666F756E643B207365610B
:1002400074206D6F6E69746F72696E672077696C68
:100250006C20636F6E74696E75652E004446506C39
:10026000617965722072656164792E00506C6179E4
:10027000696E6720766F69636520636C6970200022
:10028000566F69636520616C65727420736B697069
:100290007065643A204446506C61796572206973D8
:1002A000206E6F742072656164792E0049676E6FED
:1002B00072656420696E76616C696420564F4943AB
:1002C0004520636F6D6D616E642E00000022002575
:1002D0000028002B002E0031003400020100000530
:1002E0000108010B01000020002300260029002C3A
:1002F000002F003200000100000301060109010582
:10030000050505070508080808020202020A0A088E
:1003100008040404040101010101010101030303B4
:100320000303030303040707070C0C0C0C0C0C0C51
:100330000C0202020206060606060606060B0B0B58
:100340000B0B0B0B0B010210202008081020401093
:100350002040800201020108040201010204081089
:1003600020408080402010080402018004020180A7
:1003700040201008040201080402010102040810D0
:10038000204080010204081020408000000A0B0277
:10039000090C0D0E08070304010000000000000016
:1003A000000000000000000000000000000000004D
:1003B000000000000000001211100000000000000A
:1003C000000000000000000000000000000000002D
:1003D0000000260911241FBECFEFD1E2DEBFCDBF42
:1003E00000E00CBF25E0AEE2B2E001C01D92AB3CE4
:1003F000B207E1F712E0A0E0B2E0EAE3FCE100E0DE
:100400000BBF02C007900D92AE32B107D9F711E0D1
:10041000CAEED1E000E006C021970109802FFE015D
:100420000E94050EC93ED10780E00807A9F70E9487
:10043000BB090C941B0E0C940000CF93DF93EC01CE
:100440009A01AB01E889F98982E08083211581EE68
:1004500038074105510581F160E079E08DE390E0D6
:100460000E94C90D215031094109510956954795FE
:1004700037952795EC85FD851082EE85FF852083D5
:10048000188EEC89FD8986E08083EA89FB8980816A
:1004900080618083EA89FB89808188608083EA8922
:1004A000FB89808180688083EA89FB8980818F7DD8
:1004B0008083DF91CF910895E889F989108220E146
:1004C000D9CF8150823108F05AC0E82FF0E0882758
:1004D000E359FD4F8F4F0C94050E8D0291027F0260
:1004E00085028902BF0294029A029E02A402A80217
:1004F000AC02B202B602BF02BA02C002C4028091CC
:1005000080008F77809380000895809180008F7D98
:10051000F9CF80918000877FF5CF84B58F7784BD38
:10052000089584B58F7DFBCF8091B0008F77809345
:10053000B00008958091B0008F7DF9CF8091900038
:100540008F77809390000895809190008F7DF9CFF0
:1005500080919000877FF5CF8091A0008F77809366
:10056000A00008958091A0008F7DF9CF8091A00018
:10057000877FF5CF809120018F77809320010895A8
:10058000809120018F7DF9CF80912001877FF5CF69
:10059000CF93DF93282F30E0F901E557FC4F84918A
:1005A000F901EB5BFC4FD491F901E150FD4FC4918F
:1005B000CC23A1F081110E946102EC2FF0E0EE0F3C
:1005C000FF1FEB51FD4FA591B491EC91ED2381E01C
:1005D00090E009F480E0DF91CF91089580E090E011
:1005E000FACF1F93CF93DF93282F30E0F901E5571F
:1005F000FC4F8491F901EB5BFC4FD491F901E15080
:10060000FD4FC491CC23A9F0162F81110E946102E5
:10061000EC2FF0E0EE0FFF1FE553FD4FA591B491D5
:100620008FB7F894EC91111108C0D095DE23DC93BC
:100630008FBFDF91CF911F910895DE2BF8CF3FB789
:10064000F8948091C8039091C903A091CA03B09116
:10065000CB0326B5A89B05C02F3F19F00196A11D1D
:10066000B11D3FBFBA2FA92F982F8827BC01CD01FC
:10067000620F711D811D911D42E0660F771F881F5B
:10068000991F4A95D1F708958F929F92AF92BF928A
:10069000CF92DF92EF92FF926B017C010E941F03C9
:1006A0004B015C01C114D104E104F104B9F00E94D2
:1006B0001F03681979098A099B09683E73408105FF
:1006C000910580F321E0C21AD108E108F10888EE13
:1006D000880E83E0981EA11CB11CE4CFFF90EF9020
:1006E000DF90CF90BF90AF909F908F9008952FB7DD
:1006F000F8946091C4037091C5038091C6039091F2
:10070000C7032FBF08952F923F924F925F926F922F
:100710007F928F929F92AF92BF92CF92DF92EF9291
:10072000FF920F931F93CF93DF936B017C010E9485
:1007300077034B015C01C114D104E104F10441F4DD
:10074000C090A905D090AA05E090AB05F090AC054B
:10075000C1E046E0242E53E0352E68E0462E72E0DC
:10076000572EE7E06E2EFAE07F2E04E0D9E015E088
:100770008091A3059091A405DC01ED91FC9100848A
:10078000F185E02D1995892B09F4BCC060E070E07B
:10079000CB010E9444032091C1058091A305909153
:1007A000A405DC01ED91FC910284F385E02D21117B
:1007B0000BC019958093AD058E37D1F68091C10598
:1007C0008F5F8093C105D4CF19959091C105E92F12
:1007D000F0E0ED55FA4F8287923069F1993089F156
:1007E000913059F58F3F49F11092C105C093C3056F
:1007F0001092C6051092C505C093C7051092C80592
:100800000E947703681979098A099B09C616D706D9
:10081000E806F90608F0C3C01092C1051092C3059E
:100820001092C6051092C50581E08093C70510920D
:10083000C80580E06CC08630B9F69F5F9093C10513
:1008400097CF8F3E89F6E091B0058091B20590E098
:100850004091B30550E06091B40570E0762F6627B3
:100860002091B505620F711D2091AF052E0F332722
:10087000331FF091B1052F0F311D280F391F240FA1
:10088000351FF091AE052F0F311D3195219531099E
:100890006217730709F0A8CF1092C105E13419F46B
:1008A0001092C8052FC0E093C405982F8827480FE1
:1008B000591F5093C6054093C505EA53E63108F029
:1008C00065C0F0E08827E859FB4F8F4F0C94050E68
:1008D000AB04B5047E047E04C2049A04BF04C604BB
:1008E000C204C204C204C204C204C204C204C204D8
:1008F000C604C204C204C204C204C2041093C305E5
:10090000C093C7058091C705882309F479CFDF918B
:10091000CF911F910F91FF90EF90DF90CF90BF90FC
:10092000AF909F908F907F906F905F904F903F908F
:100930002F90089540FF03C0D093C305E1CF41FF3E
:1009400003C00093C305DCCF43705527452BD1F27C
:100950007092C305D5CF40FF03C06092C305D0CFCE
:1009600041FFD0CF5092C305CBCF40FF03C0409290
:10097000C305C6CF41FFC6CF3092C305C1CF209279
:10098000C305BECFBBE0B093C305BACFC093C305C8
:100990001092C6051092C505C093C70581CF60E0CF
:1009A00070E0CB010E944403E3CE8093BA05272F69
:1009B00030E07093BC056093BD054091B9059091FE
:1009C000B805490F5527551F840F952F911D40914C
:1009D000BB05840F911D820F931F680F792F711D26
:1009E0007195619571097093BE056093BF054423AD
:1009F00079F08091C805882359F060E070E0CB0160
:100A00000E94440360E070E0CB010E948303F1CFB9
:100A10008091A3059091A405DC01ED91FC910280E9
:100A2000F381E02D4AE050E067EB75E019950E94F4
:100A300077036093A5057093A6058093A70590930F
:100A4000A8058091BB0591E0811101C090E09093D1
:100A5000C805811106C06AE070E080E090E00C9467
:100A600044030895AF92BF92CF92DF92EF92FF922C
:100A70000F931F93CF93DF936C017B018B01040FC6
:100A8000151FEB015E01AE18BF08C017D10759F062
:100A90006991D601ED91FC910190F081E02DC601A4
:100AA0001995892B79F7C501DF91CF911F910F918E
:100AB000FF90EF90DF90CF90BF90AF900895FC0132
:100AC000A089B1898C91A689B78982FD0FC09C91BC
:100AD000818D8F5F8F73228D821749F0A18DAE0FAC
:100AE000BF2FB11D5D969C93818F08958C910895C1
:100AF000FC01538D448D252F30E0842F90E0821B24
:100B0000930B541710F0CF96089501970895FC01A8
:100B1000918D828D981761F0A28DAE0FBF2FB11D00
:100B20005D968C91928D9F5F9F73928F90E0089558
:100B30008FEF9FEF0895FC01918D828D981731F012
:100B4000828DE80FF11D858D90E008958FEF9FEF66
:100B50000895FC01918D228D892F90E0805C9F4F3C
:100B6000821B91098F73992708958CEC93E00E9462
:100B7000A90521E0892B09F420E0822F089589E658
:100B800094E00E94A90521E0892B09F420E0822F3E
:100B9000089586E095E00E94A90521E0892B09F4DB
:100BA00020E0822F0895FC01A48DA80FB92FB11D5C
:100BB000A35ABF4F2C91848D90E001968F73992793
:100BC000848FA689B7892C93A089B1898C91837071
:100BD00080648C93938D848D981306C00288F3896A
:100BE000E02D80818F7D80830895EF92FF920F9397
:100BF0001F93CF93DF93EC0181E0888F9B8D8C8DC9
:100C000098131AC0E889F989808185FF15C09FB7BC
:100C1000F894EE89FF896083E889F989808183707F
:100C2000806480839FBF81E090E0DF91CF911F912E
:100C30000F91FF90EF900895F62E0B8D10E00F5F4F
:100C40001F4F0F731127E02E8C8D8E110CC00FB625
:100C500007FCFACFE889F989808185FFF5CFCE01BD
:100C60000E94D305F1CFEB8DEC0FFD2FF11DE35A60
:100C7000FF4FF0829FB7F8940B8FEA89FB89808140
:100C80008062CFCFEF92FF920F931F93CF93DF93AA
:100C90008C017B01D0E0C0E0F701EC0FFD1F6491F7
:100CA000662339F0C8010E94F505892B11F02196C1
:100CB000F3CFCE01DF91CF911F910F91FF90EF9075
:100CC0000895CF93DF93EC01888D8823B9F0AA892A
:100CD000BB89E889F9898C9185FD03C0808186FDF7
:100CE0000DC00FB607FCF7CF8C9185FFF2CF808146
:100CF00085FFEDCFCE010E94D305E9CFDF91CF91E3
:100D0000089580E090E0892B29F00E94C9058111A7
:100D10000E94000080E090E0892B29F00E94BF052E
:100D200081110E94000080E090E0892B29F00E9450
:100D3000B50581110E94000080E090E0892B49F008
:100D400080E090E0892B29F00E94000081110C9432
:100D500000000895CF92DF92EF92FF921F93CF93FE
:100D6000DF93182F12951F708F709EE0C92E92E0AE
:100D7000D92EF12CE12CC82FD0E0BE010E2C02C0E0
:100D8000769567950A94E2F76170F60181916F019B
:100D90000E94F102FFEFEF1AFF0A84E0E816F10467
:100DA00061F78BEA94E00197F1F7E12FF0E0E65F5D
:100DB000FD4F1081812F0E94C802D7E0C0E08BE870
:100DC000E82EFF24F394C7010197F1F7812F0E94C9
:100DD000C802892B09F4CF5FD150A9F781E0C43054
:100DE00008F480E0DF91CF911F91FF90EF90DF90AA
:100DF000CF9008958F929F92AF92BF92EF92FF9201
:100E00000F931F93CF93DF93CDB7DEB7A1970FB6A4
:100E1000F894DEBF0FBECDBF7C01FA01CB0119A251
:100E2000223008F42AE08E010F5D1F4F822E912C94
:100E3000B12CA12CBF01A50194010E94C90DF9019B
:100E4000CA016A304CF5605DD8016E938D01232B89
:100E5000242B252B79F790E080E0109761F0FD01BD
:100E600001900020E9F73197AF014A1B5B0BBD01F0
:100E7000C7010E943205A1960FB6F894DEBF0FBEDF
:100E8000CDBFDF91CF911F910F91FF90EF90BF9059
:100E9000AF909F908F900895695CD6CFCF92DF92EC
:100EA000EF92FF92CF93DF93AB01BC0177FF1DC0A0
:100EB0006A017C016DE286E095E00E94F505EC0197
:100EC00044275527BA014C195D096E097F092AE0AC
:100ED00086E095E00E94FA068C0F9D1FDF91CF916E
:100EE000FF90EF90DF90CF9008952AE086E095E0A4
:100EF000DF91CF91FF90EF90DF90CF900C94FA06A6
:100F000042E050E064E272E00C9432050F931F93CC
:100F1000CF93DF93EC010E9442068C01CE010E9428
:100F20008007800F911FDF91CF911F910F9108953E
:100F3000CF92DF92EF92FF92CF93C82EC62F6CE82C
:100F400071E089E694E00E944206C394D12CF12C12
:100F5000E12C2AE0B701A60189E694E00E94FA0696
:100F60006CE289E694E00E94F50565E771E0CC2328
:100F700011F06FE771E089E694E00E94860766E869
:100F800071E086E095E00E9442062AE0B701A601E2
:100F900086E095E00E94FA066CE286E095E00E9409
:100FA000F50564E671E0CC2311F06EE671E086E0B1
:100FB00095E0CF91FF90EF90DF90CF900C94860753
:100FC0001F920F920FB60F9211242F933F938F937E
:100FD0009F93AF93BF938091C4039091C503A09159
:100FE000C603B091C7033091C30323E0230F2D370D
:100FF00058F50196A11DB11D2093C3038093C4032E
:101000009093C503A093C603B093C7038091C80310
:101010009091C903A091CA03B091CB030196A11D81
:10102000B11D8093C8039093C903A093CA03B093E2
:10103000CB03BF91AF919F918F913F912F910F90D3
:101040000FBE0F901F90189526E8230F0296A11D42
:10105000B11DD2CF1F920F920FB60F9211240BB673
:101060000F922F933F934F935F936F937F938F9341
:101070009F93AF93BF93EF93FF938CEC93E00E9409
:10108000D305FF91EF91BF91AF919F918F917F9188
:101090006F915F914F913F912F910F900BBE0F90E9
:1010A0000FBE0F901F9018951F920F920FB60F92C0
:1010B00011240BB60F922F933F934F935F936F932F
:1010C0007F938F939F93AF93BF93EF93FF938CEC9A
:1010D00093E00E945F05FF91EF91BF91AF919F91C7
:1010E0008F917F916F915F914F913F912F910F90D1
:1010F0000BBE0F900FBE0F901F9018951F920F926E
:101100000FB60F9211240BB60F922F933F934F936C
:101110005F936F937F938F939F93AF93BF93EF935F
:10112000FF9389E694E00E94D305FF91EF91BF9170
:10113000AF919F918F917F916F915F914F913F916F
:101140002F910F900BBE0F900FBE0F901F90189510
:101150001F920F920FB60F9211240BB60F922F937E
:101160003F934F935F936F937F938F939F93AF932F
:10117000BF93EF93FF9389E694E00E945F05FF9190
:10118000EF91BF91AF919F918F917F916F915F91FF
:101190004F913F912F910F900BBE0F900FBE0F906C
:1011A0001F9018951F920F920FB60F9211240BB635
:1011B0000F922F933F934F935F936F937F938F93F0
:1011C0009F93AF93BF93EF93FF9386E095E00E94C8
:1011D000D305FF91EF91BF91AF919F918F917F9137
:1011E0006F915F914F913F912F910F900BBE0F9098
:1011F0000FBE0F901F9018951F920F920FB60F926F
:1012000011240BB60F922F933F934F935F936F93DD
:101210007F938F939F93AF93BF93EF93FF9386E05A
:1012200095E00E945F05FF91EF91BF91AF919F9173
:101230008F917F916F915F914F913F912F910F907F
:101240000BBE0F900FBE0F901F901895CF93DF939A
:10125000ECECF3E01382128248EE53E060E070E0C1
:10126000448355836683778386E192E0918380830C
:1012700025ED30E03587248724ED30E03787268759
:1012800020ED30E0318B208B21ED30E0338B228B51
:1012900022ED30E0358B248B26ED30E0378B268B2A
:1012A000118E128E138E148EE9E6F4E013821282F0
:1012B0004483558366837783918380832DEC30E06C
:1012C000358724872CEC30E03787268728EC30E000
:1012D000318B208B29EC30E0338B228B2AEC30E0F1
:1012E000358B248B2EEC30E0378B268B118E128EB3
:1012F000138E148EE6E0F5E0138212824483558348
:10130000668377839183808385EC90E095878487DB
:1013100084EC90E09787868780EC90E0918B808BBF
:1013200081EC90E0938B828B82EC90E0958B848BA8
:1013300086EC90E0978B868B118E128E138E148E16
:10134000C3EAD5E084EF91E0A0E0B0E08E839F8314
:10135000A887B9878AE0E0E0F2E0A7EBB5E001906A
:101360000D928A95E1F71E8E82E08F8F1CA21DA23E
:10137000DF91CF910895CF93DF9300D000D0CDB708
:10138000DEB7789484B5826084BD84B5816084BD05
:1013900085B5826085BD85B5816085BD80916E0013
:1013A000816080936E001092810080918100826044
:1013B0008093810080918100816080938100809181
:1013C00080008160809380008091B1008460809370
:1013D000B1008091B00081608093B0008091910055
:1013E0008260809391008091910081608093910050
:1013F000809190008160809390008091A100826034
:101400008093A1008091A10081608093A1008091D0
:10141000A00081608093A000809121018260809370
:10142000210180912101816080932101809120011F
:1014300081608093200180917A00846080937A009B
:1014400080917A00826080937A0080917A00816036
:1014500080937A0080917A00806880937A0010925D
:10146000C10040E052EC61E070E086E095E00E944F
:101470001D0240E855E260E070E089E694E00E94D9
:101480001D0240E855E260E070E08CEC93E00E94C1
:101490001D020EE012E0A2E1EA2EA2E0FA2EF8010F
:1014A00081918F01282F30E0F901EB5BFC4F949183
:1014B00021503D4FF9012491222399F030E0220F71
:1014C000331FF901EE56FE4FA591B491F901E55392
:1014D000FD4F259134912FB7F894EC919E2B9C935E
:1014E0002FBF60E00E94F102E016F106C1F6AAE00B
:1014F000B2E02EE032E08D9190E0FC01EB5BFC4F1E
:10150000449181509D4FFC0184918823D1F090E05B
:10151000880F991FFC01EE56FE4F65917491FC01F6
:10152000E553FD4F059114919FB7F894FB0150814D
:10153000842F809585238083F8018081482B408308
:101540009FBF2A173B07B9F66AE070E080E090E0A1
:101550000E9444038CEC93E09093A4058093A30530
:1015600081E08093BB0570E060E08CE00E94D504D0
:1015700060ED77E080E090E00E94830368EC70E02B
:1015800080E090E00E9444031092C7058091C3055B
:10159000843009F0E2C081E080932E0284EF91E074
:1015A000A0E0B0E08093A9059093AA05A093AB05B5
:1015B000B093AC0564E170E086E00E94D5046CE570
:1015C00072E086E095E00E9486070E9477034B0157
:1015D0005C0146E8C42E43E0D42E55E5E52E52E0EA
:1015E000F52E62E9262E62E0362E412C512C320176
:1015F000439410E0F10181929192A192B1921F0166
:10160000153008F0B2C0812F0E94AA06F70180832E
:10161000F601808364E272E086E095E00E94420673
:1016200061E070E080E090E00E944E0760E272E0CE
:1016300086E095E00E944206C301B2016150710943
:10164000810991090E944E0766E172E086E095E00B
:101650000E944206C301B2010E944E0763E172E09C
:1016600086E095E00E944206F70180816AE072E020
:10167000811102C060E072E086E095E00E9486077A
:10168000F7016081812F0E9498071F5FFFEFEF1A1B
:10169000FF0A2FEFC21AD20A3FEF431A530A630A16
:1016A000730A1D3309F0A6CF6AEC71E086E095E07D
:1016B0000E94860701E089E694E00E94A9051816B9
:1016C00019060CF0A9C089E694E00E9487058D30C8
:1016D00091F3909150028A3009F08CC0911138C07A
:1016E000E0914F02EE23A1F1F0E0E15DFD4F1082A9
:1016F00046E050E067E272E08FE292E00E940D0E59
:10170000892B31F51A8219824AE050E0BE016F5FE1
:101710007F4F85E392E00E947F0C6B017C01E981A1
:10172000FA8142E0E533F40769F0808181110AC053
:10173000D701C6010197A109B1098F3F9105A10504
:10174000B105F0F16CEA72E086E095E00E94860750
:1017500010924F0210925002AECF893009F41BCF85
:1017600010922E0269E272E02CCFF7011082F6018E
:10177000108264EC71E089E694E00E9442062AE05F
:10178000B301A20189E694E00E94FA066BEB71E0D6
:1017900089E694E00E94860765EB71E086E095E0BB
:1017A0000E9442062AE0B301A20186E095E00E9471
:1017B000FA066CEA71E086E095E00E94860765CF44
:1017C00080912E02811103C060E872E0BDCFB601A6
:1017D00082E10E94D5046CE672E086E095E00E940A
:1017E0004206C701B6010E944E0786E095E00E94BE
:1017F0008007AECF91115FCFE0914F02EF3148F4F7
:1018000091E09E0F90934F02F0E0E15DFD4F8083E9
:1018100052CF009350024FCF0E9477032B013C011F
:1018200095E5E92E92E0F92E22E9C22E22E0D22E91
:1018300036E8232E33E0332E10E0812F0E94AA06D3
:10184000F10191911F018917F1F131978083F60120
:1018500040825182628273821F5FF4E0CF0ED11CFE
:101860002FEFE21AF20A153041F780915102909160
:101870005202A0915302B091540253014201881ABE
:10188000990AAA0ABB0AD501C40180329E44A10567
:10189000B105B0F040925102509252026092530250
:1018A0007092540285E5E82E82E0F82E10E0F701F0
:1018B00061917F01812F0E9498071F5F1530B9F752
:1018C0000E948106F8CEF7019081891729F2F6016E
:1018D00080809180A280B380A301920128193909E8
:1018E0004A095B09243B31054105510508F4B4CF91
:1018F000F7018083682F812F0E949807ADCF3F9218
:101900004F925F926F927F928F929F92AF92BF920F
:10191000CF92DF92EF92FF920F931F93CF93DF93BB
:101920005C016B017A016115710519F0FB0191836E
:101930008083E114F10451F0C7010297839730F0DE
:1019400040E030E020E090E06BC05E01E5012196D0
:10195000F5011081812F90E00E94AD0D892BA9F730
:101960001D3201F52196F501118101E0E114F10428
:1019700009F4E6C0F0E1EF16F10409F088C0103375
:1019800059F488818F7D883509F07CC019812296B1
:101990000260F0E1EF2EF12C812C912CA12C88E03B
:1019A000B82E92C01B3221F4E5012296F501118177
:1019B00000E0DCCFEAE0EE16F10409F4C7C0F0E184
:1019C000EF16F10409F073C0E7CF78E0E72EF12CB1
:1019D000812C912CA12C60E1B62E76C021E0ADC007
:1019E000302F3170C114D10431F0222371F12197CD
:1019F000F601D183C08327FF2EC060E070E080E055
:101A000090E8311104C06FEF7FEF8FEF9FE722E284
:101A100030E03093CA052093C905462F372F282F71
:101A2000642F732F822FDF91CF911F910F91FF9021
:101A3000EF90DF90CF90BF90AF909F908F907F906E
:101A40006F905F904F903F90089501FF04C02297E0
:101A5000F601D183C083332341F090958095709532
:101A600061957F4F8F4F9F4FD8CF97FFD6CF82E2A0
:101A700090E09093CA058093C9056FEF7FEF8FEFD9
:101A80009FE7CBCF10E3E114F10409F49ECF28E0E7
:101A9000E216F10409F49CCF0CF08CCF812C912C30
:101AA000A12CE0E4BE2E82E0E816F10469F060E0CB
:101AB00070E080E090E897010F2C000C440B550B70
:101AC0000E94C90D49015A0120E060E070E0CB019D
:101AD00027010F2C000C66087708FE0150ED352E0B
:101AE000310E39E0331570F43FEB310F49EC342EF1
:101AF0003A3138F03FE9310F3A3108F071CF39EA25
:101B0000332E310E3E141F040CF06ACF27FD15C092
:101B100086169706A806B90678F0A30192010E94DE
:101B2000B90D630D711D811D911D61307105810518
:101B300020E8920708F452CF2FEF21961081CDCFE5
:101B4000103309F41ECF2AE0E22EF12C9CEC892EF2
:101B5000982CA82C9CE0B92EB7CF91110C94B60DFF
:101B6000803219F089508550C8F708959927882741
:101B70000895DB018F939F930E94EB0DBF91AF916E
:101B8000A29F800D911DA39F900DB29F900D1124D7
:101B90000895A1E21A2EAA1BBB1BFD010DC0AA1FAE
:101BA000BB1FEE1FFF1FA217B307E407F50720F0C6
:101BB000A21BB30BE40BF50B661F771F881F991F41
:101BC0001A9469F760957095809590959B01AC018A
:101BD000BD01CF0108950E94F60DA59F900DB49F01
:101BE000900DA49F800D911D11240895A29FB00116
:101BF000B39FC001A39F700D811D1124911DB29F41
:101C0000700D811D1124911D0895EE0FFF1F881F77
:101C10008BBF0790F691E02D1994FB01DC01415038
:101C2000504030F08D910190801919F40020B9F7DF
:101C3000881B990B0895F894FFCF7EFF06000100E2
:101C4000000000EF36373839161718190000000069
:101C5000F505320578056106A90587059B050D0A7E
:081C600000564F4943452C00DA
:020000040003F7
:10E000000D9489F10D94B2F10D94B2F10D94B2F129
:10E010000D94B2F10D94B2F10D94B2F10D94B2F1F0
:10E020000D94B2F10D94B2F10D94B2F10D94B2F1E0
:10E030000D94B2F10D94B2F10D94B2F10D94B2F1D0
:10E040000D94B2F10D94B2F10D94B2F10D94B2F1C0
:10E050000D94B2F10D94B2F10D94B2F10D94B2F1B0
:10E060000D94B2F10D94B2F10D94B2F10D94B2F1A0
:10E070000D94B2F10D94B2F10D94B2F10D94B2F190
:10E080000D94B2F10D94B2F10D94B2F10D94B2F180
:10E090000D94B2F10D94B2F10D94B2F10D94B2F170
:10E0A0000D94B2F10D94B2F10D94B2F10D94B2F160
:10E0B0000D94B2F10D94B2F10D94B2F10D94B2F150
:10E0C0000D94B2F10D94B2F10D94B2F10D94B2F140
:10E0D0000D94B2F10D94B2F10D94B2F10D94B2F130
:10E0E0000D94B2F141546D656761323536300041AF
:10E0F000726475696E6F206578706C6F72657220DE
:10E1000073746B3530305632206279204D4C530099
:10E11000426F6F746C6F616465723E004875683F52
:10E1200000436F6D70696C6564206F6E203D200048
:10E130004350552054797065202020203D20005FF9
:10E140005F4156525F415243485F5F3D2000415658
:10E1500052204C696243205665723D20004743437C
:10E160002056657273696F6E203D20004350552024
:10E1700049442020202020203D20004C6F7720663D
:10E18000757365202020203D20004869676820665F
:10E190007573652020203D200045787420667573D6
:10E1A00065202020203D20004C6F636B2066757336
:10E1B000652020203D20004D617220203720323024
:10E1C000313300312E362E3800342E332E350056A2
:10E1D00023202020414444522020206F7020636F70
:10E1E00064652020202020696E73747275637469E1
:10E1F0006F6E2061646472202020496E74657272B3
:10E20000757074006E6F20766563746F7200726A49
:10E210006D702020006A6D70200057686174207056
:10E220006F72743A00506F7274206E6F7420737541
:10E2300070706F72746564004D7573742062652030
:10E2400061206C6574746572002000577269747483
:10E25000696E672045450052656164696E672045B7
:10E26000450045452065727220636E743D00504F35
:10E27000525400303D5A65726F2061646472003FF1
:10E280003D43505520737461747300403D454550C3
:10E29000524F4D207465737400423D426C696E6B41
:10E2A000204C454400453D44756D70204545505215
:10E2B0004F4D00463D44756D7020464C415348001B
:10E2C000483D48656C70004C3D4C69737420492F83
:10E2D0004F20506F72747300513D51756974005234
:10E2E0003D44756D702052414D00563D73686F7707
:10E2F00020696E7465727275707420566563746FF0
:10E30000727300593D506F727420626C696E6B00BD
:10E310002A0011241FBECFEFD1E2DEBFCDBF01E046
:10E320000CBF12E0A0E0B2E0EEE1FDEF03E00BBFB6
:10E3300002C007900D92A030B107D9F712E0A0E01B
:10E34000B2E001C01D92AE30B107E1F70F9460F367
:10E350000D948DFE01E20EBF0FEF0DBF11241FBE05
:10E360000D9460F30D9400F020E030E040ED57E0B4
:10E3700005C0FA013197F1F72F5F3F4F2817390792
:10E38000C0F308959C01260F311DC901A0E0B0E043
:10E390002F5F3F4FABBFFC018791882361F08093D3
:10E3A000C6008091C00086FFFCCF8091C0008064D1
:10E3B0008093C000EACF08958DE08093C6008091DD
:10E3C000C00086FFFCCF8091C00080648093C000B5
:10E3D0008AE08093C6008091C00086FFFCCF8091C8
:10E3E000C00080648093C00008950F94C2F10F9420
:10E3F000DCF10895FC019081992359F09093C600B7
:10E400008091C00086FFFCCF8091C0008064809323
:10E41000C0003196992379F70895282F982F929567
:10E420009F70892F805D8A3308F0895F8093C600D2
:10E430008091C00086FFFCCF8091C00080648093F3
:10E44000C000822F8F70982F905D9A3308F0995FEB
:10E450009093C6008091C00086FFFCCF8091C000E1
:10E4600080648093C00008959C01FB01853691056E
:10E470001CF46330710594F0C90164E670E00F94F8
:10E480002EFE605D7F4F6093C6008091C00086FFC6
:10E49000FCCF8091C00080648093C0002B30310598
:10E4A00014F43297B4F0C90164E670E00F942EFEC4
:10E4B0006AE070E00F942EFE605D7F4F6093C600AF
:10E4C0008091C00086FFFCCF8091C0008064809363
:10E4D000C000C9016AE070E00F942EFEC0968093E0
:10E4E000C6008091C00086FFFCCF8091C000806490
:10E4F0008093C00008951F93182F8EE692EE60E07F
:10E500000F94C2F11093C6008091C00086FFFCCF2B
:10E510008091C00080648093C0000F94DCF11F9153
:10E5200008952F923F924F925F926F927F928F92B7
:10E530009F92AF92BF92CF92DF92EF92FF920F9392
:10E540001F93DF93CF93CDB7DEB762970FB6F894E2
:10E55000DEBF0FBECDBF382E622ECA01DB015C01CB
:10E560006D01772420E2222E2E010894411C511CBB
:10E570008BC081E0A81680E0B80681E0C80680E084
:10E58000D80628F0C601AA27BB270F940DF2BB2797
:10E59000AD2D9C2D8B2D0F940DF28A2D0F940DF225
:10E5A0002092C6008091C00086FFFCCF8091C00001
:10E5B00080648093C0009DE29093C6008091C0006B
:10E5C00086FFFCCF8091C00080648093C0002092C1
:10E5D000C6008091C00086FFFCCF8091C00080649F
:10E5E0008093C00019828601750188249924A1E0D6
:10E5F0003A1651F03A1620F0B2E03B1661F409C029
:10E600000BBFF701779007C0C7010F9477FE782EF4
:10E6100002C0F7017080872D0F940DF22092C60082
:10E620008091C00086FFFCCF8091C0008064809301
:10E63000C000872D8052F401EF70F0708F3520F408
:10E64000E40DF51D708204C0E40DF51D8EE280839B
:10E650000894E11CF11C011D111D0894811C911CE2
:10E6600090E18916910409F0C2CF80E190E0A0E02A
:10E67000B0E0A80EB91ECA1EDB1E198AC2010F9493
:10E68000FAF10F94DCF16A94662009F072CF629679
:10E690000FB6F894DEBF0FBECDBFCF91DF911F91B3
:10E6A0000F91FF90EF90DF90CF90BF90AF909F9031
:10E6B0008F907F906F905F904F903F902F90089534
:10E6C0002F923F924F925F926F927F928F929F9282
:10E6D000AF92BF92CF92DF92EF92FF920F931F9370
:10E6E000DF93CF93CDB7DEB7CD53D1400FB6F894BB
:10E6F000DEBF0FBECDBF01E20EBF0FEF0DBF94B75F
:10E70000F894A89514BE80916000886180936000A1
:10E7100010926000789493FF05C0E0910002F091A0
:10E7200001021995279A2F9A8091C00082608093E8
:10E73000C00080E18093C40088E18093C1000000A4
:10E74000EE24FF24870144E0A42EB12CCC24DD2448
:10E7500024C0C5010197F1F70894E11CF11C011DCB
:10E76000111D21E2E2162EE4F20620E0020720E06D
:10E77000120718F031E0C32ED12CC801B70127ECE5
:10E780003BE140E050E00F9441FE611571058105C9
:10E79000910519F485B1805885B98091C00087FD35
:10E7A00003C0C114D104A9F2A6014F5F5F4FC25E3E
:10E7B000DE4F59834883CE51D140C25EDE4F8881FF
:10E7C0009981CE51D140019711F00D9410FEC05D9A
:10E7D000DE4F19821882C053D14060E0C15DDE4F28
:10E7E0001882CF52D14088249924C35DDE4F19820C
:10E7F0001882CD52D140C05EDE4F188219821A8233
:10E800001B82C052D140CE5CDE4F188219821A8220
:10E810001B82C253D140EE24FF2487010BBFF701B6
:10E8200007911691C45CDE4F19830883CC53D14005
:10E830000D940BFEC25EDE4F28813981CE51D1404E
:10E840002130310509F52091C600C25EDE4F1982E4
:10E850001882CE51D14022C02F5F3F4F4F4F5F4FA4
:10E86000213082E138078AE7480780E0580780F0C6
:10E87000C45CDE4FE881F981CC53D140EF5FFF4F9C
:10E8800019F0EE27FF27099420E030E040E050E047
:10E890008091C00087FFE0CF2091C600C35DDE4FAE
:10E8A00048815981CD52D1404F5F5F4FC35DDE4FEC
:10E8B00059834883CD52D140213209F063C64A3092
:10E8C000510508F05FC60894811C911C53E0851621
:10E8D000910409F059C600E010E018C081E280936D
:10E8E000C6008091C00086FFFCCF8091C00080648C
:10E8F0008093C0002F5F3F4F2931310579F70F9486
:10E90000DCF10F5F1F4F0530110519F020E030E0FA
:10E91000E5CF10920A0210920B0210920C02109294
:10E920000D02109206021092070210920802109235
:10E930000902109202021092030210920402109235
:10E9400005028FEE90EE60E00F94F5F180E191EE1C
:10E9500060E00F94C2F18091C00087FFFCCF9091DE
:10E96000C600903608F09F759032B8F09093C600BC
:10E970008091C00086FFFCCF8091C00080648093AE
:10E98000C000A0E2A093C6008091C00086FFFCCF2B
:10E990008091C00080648093C000983409F4D7C18E
:10E9A0009934B8F4923409F459C1933458F490333B
:10E9B00019F1903308F4E3C59F33A1F1903409F0C5
:10E9C000DEC5BDC0953409F470C1963409F0D7C5D1
:10E9D00098C1923509F42BC2933538F49C3409F46C
:10E9E000F5C1913509F0CBC518C2963509F445C279
:10E9F000993509F0C4C567C483E792EE62E00F94CD
:10EA0000F5F110920602109207021092080210927D
:10EA1000090210920A0210920B0210920C0210923C
:10EA20000D0213C18FE792EE62E00F94F5F18FEEC5
:10EA300090EE60E00F94F5F181E291EE60E00F94CA
:10EA4000C2F187EB91EE60E00F94F5F180E391EE77
:10EA500060E00F94C2F184EE90EE60E00F94F5F167
:10EA60008FE391EE60E00F94C2F186E090E061E008
:10EA700070E00F9434F20F94DCF18DE591EE60E0DC
:10EA80000F94C2F189EC91EE60E00F94F5F18EE401
:10EA900091EE60E00F94C2F183EC91EE60E00F9490
:10EAA000F5F18CE691EE60E00F94C2F18EE10F94E7
:10EAB0000DF288E90F940DF281E00F940DF20F949E
:10EAC000DCF18BE791EE60E00F94C2F119E0E0E039
:10EAD000F0E010935700E4918E2F0F940DF20F94F5
:10EAE000DCF18AE891EE60E00F94C2F1E3E0F0E03F
:10EAF00010935700E4918E2F0F940DF20F94DCF1D8
:10EB000089E991EE60E00F94C2F1E2E0F0E0109349
:10EB10005700E4918E2F0F940DF20F94DCF188EAE8
:10EB200091EE60E00F94C2F1E1E0F0E01093570045
:10EB30001491812F0F940DF20F94DCF107CF8BE825
:10EB400092EE62E00F94F5F18BE492EE60E00F94A8
:10EB5000F5F10F94DCF100E010E019C0C8016F2D51
:10EB60000F947FFEFF2031F489E492EE60E00F9471
:10EB7000C2F10BC0F092C6008091C00086FFFCCFAE
:10EB80008091C00080648093C0000F5F1F4FC80158
:10EB900081519F41A0E0B0E0ABBFFC01F790BAE229
:10EBA000FB1621F0E2E000301E07C1F60F94DCF105
:10EBB0000F94DCF187E592EE60E00F94F5F10F948D
:10EBC000DCF1CC24DD2400E010E01EC0C8010F946D
:10EBD00077FEF82E882331F489E492EE60E00F94FA
:10EBE000C2F10BC08093C6008091C00086FFFCCFAD
:10EBF0008091C00080648093C000FE1419F00894D6
:10EC0000C11CD11C0F5F1F4FC80181519F41A0E063
:10EC1000B0E0ABBFFC01E790FAE2EF1621F022E092
:10EC20000030120799F60F94DCF10F94DCF182E6C4
:10EC300092EE60E00F94C2F1C60161E070E00F94C3
:10EC400034F20F94DCF10F94DCF110920202109276
:10EC50000302109204021092050278CE89E992EE26
:10EC600062E00F94F5F1279A2F9A16C02F9880E052
:10EC700090E0E0EDF7E03197F1F7019684369105E9
:10EC8000C1F72F9A80E090E0E0EDF7E03197F1F7DF
:10EC9000019684369105C1F78091C00087FFE6CFC9
:10ECA0008091C00087FFFCCF64C485EA92EE62E0E9
:10ECB0000F94F5F140910202509103026091040219
:10ECC0007091050281E020E10F9491F2809102029F
:10ECD00090910302A0910402B091050280509F4FD1
:10ECE000AF4FBF4F8093020290930302A0930402A0
:10ECF000B093050280509041A040B04008F426CE69
:10ED0000A4CF83EB92EE62E00F94F5F140910602FE
:10ED100050910702609108027091090280E020E1A1
:10ED20000F9491F28091060290910702A09108023F
:10ED3000B091090280509F4FAF4FBF4F80930602A2
:10ED400090930702A0930802B0930902FFCD80ECD4
:10ED500092EE62E00F94F5F183E792EE60E00F949B
:10ED6000F5F18FE792EE60E00F94F5F18BE892EE0B
:10ED700060E00F94F5F189E992EE60E00F94F5F10F
:10ED800085EA92EE60E00F94F5F183EB92EE60E09D
:10ED90000F94F5F180EC92EE60E00F94F5F187ECC2
:10EDA00092EE60E00F94F5F188ED92EE60E00F9442
:10EDB000F5F18FED92EE60E00F94F5F18AEE92EEB0
:10EDC00060E00F94F5F183E093EEBDCD87EC92EE19
:10EDD00062E00F94F5F181E40F947BF282E40F94EA
:10EDE0007BF283E40F947BF284E40F947BF285E45E
:10EDF0000F947BF286E40F947BF287E40F947BF20E
:10EE000088E40F947BF28AE40F947BF28BE40F94F6
:10EE10007BF28CE40F947BF299CD88ED92EE62E068
:10EE20000F94F5F1772473948824992409C48FED05
:10EE300092EE62E00F94F5F140910A0250910B02BC
:10EE400060910C0270910D0282E020E10F9491F22A
:10EE500080910A0290910B02A0910C02B0910D02D8
:10EE600080509F4FAF4FBF4F80930A0290930B0289
:10EE7000A0930C02B0930D0269CD8AEE92EE62E08F
:10EE80000F94F5F184EE90EE60E00F94F5F18FECC5
:10EE900091EE60E00F94F5F1662477244301CC5D98
:10EEA000DE4F19821882C452D140D401C301B695F5
:10EEB000A79597958795CA5DDE4F88839983AA8326
:10EEC000BB83C652D140CC5DDE4FA881B981C4520C
:10EED000D1401196CC5DDE4FB983A883C452D14096
:10EEE000CD0162E070E00F9434F2B0E2B093C6005E
:10EEF0008091C00086FFFCCF8091C0008064809329
:10EF0000C000EDE2E093C6008091C00086FFFCCF18
:10EF10008091C00080648093C000F0E2F093C6004E
:10EF20008091C00086FFFCCF8091C00080648093F8
:10EF3000C000CA5DDE4FE880F9800A811B81C6529D
:10EF4000D140BB27A12F902F8F2D0F940DF2CA5DBA
:10EF5000DE4F8881C652D1400F940DF2B0E2FB2EF5
:10EF6000F092C6008091C00086FFFCCF8091C00067
:10EF700080648093C0000DE30093C6008091C000C0
:10EF800086FFFCCF8091C00080648093C00010E2B7
:10EF90001093C6008091C00086FFFCCF8091C00016
:10EFA00080648093C0008BBEF3012791C65DDE4F65
:10EFB0002883CA52D140A22EBB24CC24DD2408943D
:10EFC000611C711C811C911C8BBEF3018791282E42
:10EFD0003324442455240894611C711C811C911C09
:10EFE0008BBEF3013791C55DDE4F3883CB52D140E4
:10EFF0000894611C711C811C911C8BBEF30147910C
:10F00000C45DDE4F4883CC52D140ADEFEA2EAFEF66
:10F01000FA2EAFEF0A2FAFEF1A2F6E0C7F1C801E57
:10F02000911E142D032DF22CEE24EA0CFB1C0C1D5A
:10F030001D1D0F940DF220E22093C6008091C000A8
:10F0400086FFFCCF8091C00080648093C000C65DC5
:10F05000DE4F8881CA52D1400F940DF230E23093D6
:10F06000C6008091C00086FFFCCF8091C000806404
:10F070008093C000C45DDE4F8881CC52D1400F9494
:10F080000DF240E24093C6008091C00086FFFCCFA5
:10F090008091C00080648093C000C55DDE4F888190
:10F0A000CB52D1400F940DF250E25093C6008091A4
:10F0B000C00086FFFCCF8091C00080648093C000B8
:10F0C0008FEFE8168FEFF80680E0080780E018075A
:10F0D00031F484E092EE60E00F94C2F1DFC0D80119
:10F0E000C7018070907CA070B0708050904CA040A0
:10F0F000B040D1F52FEF3FE340E050E0E222F322B1
:10F1000004231523CA5DDE4FA880B980CA80DB8046
:10F11000C652D140AE0CBF1CC01ED11EAA0CBB1CD7
:10F12000CC1CDD1C8EE092EE60E00F94C2F1BB2798
:10F13000A12F902F8F2D0F940DF28E2D0F940DF285
:10F1400030E23093C6008091C00086FFFCCF8091F2
:10F15000C00080648093C0004EE34093C60080915D
:10F16000C00086FFFCCF87C08EE09EEFA0E0B0E03D
:10F17000E822F9220A231B239CE0E91694E9F90608
:10F1800090E0090790E0190709F088C0C45DDE4FE0
:10F19000A881CC52D140EA2EFF2400E010E0102FCD
:10F1A0000F2DFE2CEE24C55DDE4FB881CB52D14031
:10F1B000EB0EF11C011D111DD601C501817090706F
:10F1C000A070B070DC0199278827E80EF91E0A1F8D
:10F1D0001B1F20EF30E040E050E0A222B322C42207
:10F1E000D52241E1AA0CBB1CCC1CDD1C4A95D1F7F1
:10F1F000EA0CFB1C0C1D1D1D81E090E0A0E0B0E0BE
:10F20000282239224A225B2235E1220C331C441C7D
:10F21000551C3A95D1F7E20CF31C041D151D57013E
:10F220006801AA0CBB1CCC1CDD1C85E192EE60E0E1
:10F230000F94C2F1C801AA27BB270F940DF2BB2778
:10F24000A12F902F8F2D0F940DF28E2D0F940DF274
:10F2500090E29093C6008091C00086FFFCCF809121
:10F26000C00080648093C000AEE3A093C60080918C
:10F27000C00086FFFCCF8091C00080648093C000F6
:10F28000C601AA27BB270F940DF2BB27AD2D9C2DDD
:10F290008B2D0F940DF28A2D0F940DF20F94DCF14B
:10F2A000CC5DDE4FE881F981C452D140F99709F471
:10F2B0004DCBF4E0EF2EF12C012D112D6E0C7F1CA7
:10F2C000801E911EF2CD83E093EE62E00F94F5F183
:10F2D0008AE192EE60E00F94C2F18091C00087FF56
:10F2E000FCCF1091C6001F751093C6008091C0001E
:10F2F00086FFFCCF8091C00080648093C0000F9493
:10F30000DCF1812F81548A3108F036C1163409F4BA
:10F3100095C0173490F4133409F44EC0143430F40B
:10F320001134F1F0123409F01DC130C0143409F465
:10F3300059C0153409F016C16BC01A3409F4C4C0A1
:10F340001B3438F4173409F48FC0183409F00AC19B
:10F35000A1C01B3409F4D2C01C3409F003C1E8C0B9
:10F360008FEF81B90DC082B1809582B980E090E0C5
:10F37000E0EDF7E03197F1F70196883C9105C1F790
:10F380008091C00087FFEFCF12B8EFC08FEF84B934
:10F390000DC085B1809585B980E090E0E0EDF7E0A3
:10F3A0003197F1F70196883C9105C1F78091C00033
:10F3B00087FFEFCF15B8D9C08FEF87B90DC088B1DF
:10F3C000809588B980E090E0E0EDF7E03197F1F7C3
:10F3D0000196883C9105C1F78091C00087FFEFCF6F
:10F3E00018B8C3C08FEF8AB90DC08BB180958BB9A7
:10F3F00080E090E0E0EDF7E03197F1F70196883C8E
:10F400009105C1F78091C00087FFEFCF1BB8ADC059
:10F410008FEF8DB90DC08EB180958EB980E090E0F0
:10F42000E0EDF7E03197F1F70196883C9105C1F7DF
:10F430008091C00087FFEFCF1EB897C08FEF80BBD1
:10F440000DC081B3809581BB80E090E0E0EDF7E0F6
:10F450003197F1F70196883C9105C1F78091C00082
:10F4600087FFEFCF11BA81C08FEF83BB0DC084B38C
:10F47000809584BB80E090E0E0EDF7E03197F1F714
:10F480000196883C9105C1F78091C00087FFEFCFBE
:10F4900014BA6BC08FEF809301010FC080910201FD
:10F4A00080958093020180E090E0E0EDF7E03197F5
:10F4B000F1F70196883C9105C1F78091C00087FF64
:10F4C000EDCF1092020151C08FEF809304010FC065
:10F4D0008091050180958093050180E090E0E0ED4A
:10F4E000F7E03197F1F70196883C9105C1F78091DB
:10F4F000C00087FFEDCF1092050137C08FEF8093DA
:10F5000007010FC08091080180958093080180E079
:10F5100090E0E0EDF7E03197F1F70196883C910536
:10F52000C1F78091C00087FFEDCF109208011DC088
:10F530008FEF80930A010FC080910B01809580931B
:10F540000B0180E090E0E0EDF7E03197F1F70196F4
:10F55000883C9105C1F78091C00087FFEDCF1092E4
:10F560000B0103C085E292EEEEC98091C00087FFD7
:10F57000FCCF8091C600EAC988E392EEE4C98CE131
:10F5800091EEE1C988249924933011F1943028F444
:10F59000913089F09230B8F408C0953061F195301F
:10F5A000F0F0963009F048C043C02B3109F042C951
:10F5B00091E06BE13FC96227C15DDE4F2883CF52E6
:10F5C000D14092E037C9B22FA0E0622793E032C960
:10F5D000822F90E0A82BB92B622794E02BC92E3004
:10F5E00009F039C3622795E0C05DDE4F19821882A9
:10F5F000C053D1401FC9E1E0F0E0EC0FFD1FC05D3A
:10F60000DE4F08811981C053D140E00FF11F2083E4
:10F610000F5F1F4FC05DDE4F19830883C053D14079
:10F6200062270A171B0709F005C9D80196E002C92D
:10F63000261709F010C303C0973009F0FBC87724E0
:10F640009981933109F412C19431C8F4963009F4C8
:10F65000D8C0973050F4923009F406C1933009F4C1
:10F660006DC0913009F059C253C0913109F477C08F
:10F67000923108F0BBC0903109F04FC2F5C098310B
:10F6800009F487C0993150F4953109F4EFC09531F0
:10F6900008F4C6C1963109F040C2C2C19A3109F4DA
:10F6A0006CC09A3108F491C09B3109F45BC09D3164
:10F6B00009F033C29D81903359F48F81882311F46E
:10F6C0009EE11CC0813011F091E018C098E916C08D
:10F6D000892F807591F0903539F4E0E0F0E089E011
:10F6E0008093570094910AC0983539F4E3E0F0E034
:10F6F00089E080935700949101C090E01A821B82A8
:10F700008D818C831D829E831F8227E030E009C299
:10F710001A8288E08B8381E48C8386E58D8382E581
:10F720008E8389E48F8383E5888780E589878FE5E9
:10F730008A8782E38B872BE030E0F3C18A818139AD
:10F7400041F0823941F0803911F48FE005C080E04A
:10F7500003C082E001C08AE01A828B8344C0772410
:10F76000739482C08D81882311F48EE12CC0813086
:10F7700011F081E028C088E926C01A82E1E0F0E0BB
:10F7800089E08093570084918B831C8224E030E0D1
:10F79000C8C18B81803589F48C81883039F4E2E0EE
:10F7A000F0E089E08093570084910DC0E0E0F0E044
:10F7B00089E080935700849106C0E3E0F0E089E09F
:10F7C0008093570084911A82DFCF8D81836C99E0FA
:10F7D000E1E0F0E0082E90935700E89507B600FCB2
:10F7E000FDCF1A821B8223E030E09BC180EC8A832C
:10F7F000CE5CDE4F188219821A821B82C253D1401E
:10F800008EC18A8190E0A0E0B0E0582F44273327D2
:10F8100022278B8190E0A0E0B0E0DC0199278827C7
:10F82000282B392B4A2B5B2B8D8190E0A0E0B0E098
:10F83000282B392B4A2B5B2B8C8190E0A0E0B0E089
:10F84000BA2FA92F982F8827282B392B4A2B5B2BCF
:10F85000220F331F441F551FC05EDE4F288339839C
:10F860004A835B83C052D1401A8259C13A81C95C34
:10F87000DE4F3883C753D140CA5CDE4F1882C6536F
:10F88000D1408B81C82EDD24CA5CDE4F488159816E
:10F89000C653D140C42AD52A933109F082C0CE5C28
:10F8A000DE4F88819981AA81BB81C253D1408050AB
:10F8B000904CA340B04030F583E0CE5CDE4FE88052
:10F8C000F9800A811B81C253D140F70100935B008C
:10F8D00080935700E89507B600FCFDCFCE5CDE4F65
:10F8E000088119812A813B81C253D14000501F4FAA
:10F8F0002F4F3F4FCE5CDE4F088319832A833B8313
:10F90000C253D140C05EDE4F488159816A817B81FC
:10F91000C052D140DE011B9631E08C9111962C91A2
:10F9200011971296C75CDE4F2883C953D140C85C3B
:10F93000DE4F1882C853D14090E0C85CDE4FE881AA
:10F94000F981C853D1408E2B9F2B0C01FA01609393
:10F950005B0030935700E89511244E5F5F4F6F4F67
:10F960007F4F0EEFE02E0FEFF02ECE0CDF1CC114F8
:10F97000D10499F685E0C05EDE4F088119812A81A5
:10F980003B81C052D140F80120935B008093570027
:10F99000E89507B600FCFDCF81E180935700E8951C
:10F9A00035C0C05EDE4F88819981AA81BB81C0527B
:10F9B000D140B695A795979587957C018601ABE0D8
:10F9C000AA2EB12CAC0EBD1E0BC0D5016D915D01F0
:10F9D000C7010F947FFE0894E11CF11C01501040F8
:10F9E0000115110591F7A60160E070E0440F551F65
:10F9F000661F771FC05EDE4FE880F9800A811B8199
:10FA0000C052D1404E0D5F1D601F711F1A82C05E33
:10FA1000DE4F488359836A837B83C052D1407FC0C5
:10FA2000FA80C55CDE4FF882CB53D140C65CDE4F16
:10FA30001882CA53D1408B81C82EDD24C65CDE4FAC
:10FA400008811981CA53D140C02AD12A1A828981DA
:10FA5000BE016D5F7F4F843121F59601C05EDE4FA0
:10FA6000E880F9800A811B81C052D1400BBFF701A9
:10FA700087919691DB018C9311969C936E5F7F4FDB
:10FA8000D801C7010296A11DB11DC05EDE4F88835B
:10FA90009983AA83BB83C052D14022503040F1F6F3
:10FAA00036C0C05EDE4F288139814A815B81C052F9
:10FAB000D1400894C108D108760100E010E0089414
:10FAC000C11CD11C0894E11CF11C011D111DE20E8A
:10FAD000F31E041F151F21BDBB27A52F942F832FB5
:10FAE00082BD2F5F3F4F4F4F5F4FF89A80B5DB01CC
:10FAF0008D93BD012E153F054007510761F7C05E8C
:10FB0000DE4F288339834A835B83C052D1409601FC
:10FB10002D5F3F4FFB01108204C080EC8A8322E0FE
:10FB200030E08BE18093C6008091C00086FFFCCF5F
:10FB30008091C00080648093C000C15DDE4FF88179
:10FB4000CF52D140F093C6008091C00086FFFCCF19
:10FB50008091C00080648093C000432F3093C60022
:10FB60008091C00086FFFCCF8091C00080648093AC
:10FB7000C000922F2093C6008091C00086FFFCCF6A
:10FB80008091C00080648093C0008EE08093C600A6
:10FB90008091C00086FFFCCF8091C000806480937C
:10FBA000C00065E1C15DDE4FE880CF52D1406E25D7
:10FBB00069276427FE01319610C090819093C6009A
:10FBC0008091C00086FFFCCF31968091C000806498
:10FBD0008093C0006927215030402115310569F715
:10FBE0006093C6008091C00086FFFCCF8091C0006A
:10FBF00080648093C00085B1805885B9772081F4F6
:10FC0000C15DDE4F0881CF52D1400F5FC15DDE4F35
:10FC10000883CF52D14090E0A0E0B0E00D941AF4F8
:10FC200027982F9880E090E020ED37E0F901319798
:10FC3000F1F7019684369105C9F700008091C00064
:10FC40008D7F8093C00081E180935700E895EE2777
:10FC5000FF270994FFCF90E00D941AF497FB092E2B
:10FC600007260AD077FD04D02ED006D000201AF443
:10FC7000709561957F4F0895F6F7909581959F4F08
:10FC80000895A1E21A2EAA1BBB1BFD010DC0AA1FDD
:10FC9000BB1FEE1FFF1FA217B307E407F50720F0F5
:10FCA000A21BB30BE40BF50B661F771F881F991F70
:10FCB0001A9469F760957095809590959B01AC01B9
:10FCC000BD01CF010895AA1BBB1B51E107C0AA1FAC
:10FCD000BB1FA617B70710F0A61BB70B881F991FED
:10FCE0005A95A9F780959095BC01CD010895F99991
:10FCF000FECF92BD81BDF89A992780B50895262F31
:10FD0000F999FECF1FBA92BD81BD20BD0FB6F89400
:0EFD1000FA9AF99A0FBE01960895F894FFCF63
:00000001FF
