:100000000C94EA010C941B020C941B020C941B022E
:100010000C941B020C941B020C941B020C941B02EC
:100020000C941B020C941B020C941B020C941B02DC
:100030000C941B020C941B020C941B020C941B02CC
:100040000C941B020C941B020C941B020C941B02BC
:100050000C941B020C941B020C941B020C94E007E2
:100060000C941B020C94FC080C94D2080C941B02F8
:100070000C941B020C941B020C941B020C941B028C
:100080000C941B020C941B020C941B020C941B027C
:100090000C94A8080C947E080C941B020C941B0270
:1000A0000C941B020C941B020C941B020C941B025C
:1000B0000C941B020C941B020C941B020C941B024C
:1000C0000C941B020C941B020C941B020C945408FD
:1000D0000C942A080C941B020C941B020C941B0217
:1000E0000C941B020C94AC020C947E040C949402AD
:1000F0000C94C4020C94C6040C9487050C9432052D
:100100000C9485020C94BF040C94A9050C947F02F6
:100110000C94B2020C9478050C94AB040C94260950
:100120000C94BA020C9491020C949A040C946106FB
:100130000C94B5040C9489020C94C0020C94B60281
:100140000C949A020C949B050C948D020C94A402BE
:100150000C94F5050C949E020C94BF020C94A8021A
:100160000C94C204415641494C41424C4500424F17
:100170004F4B454400415641494C41424C45004299
:100180004F4F4B454400534541542C005345415477
:100190002C0000002100240027002A002D00300040
:1001A000330001010000040107010A012C4F4646FB
:1001B0004C494E4500534541542C002C4F46464C6B
:1001C000494E4500534541542C0052656164793ACB
:1001D00020736561747320312D35206F6E6C696EEC
:1001E000653B20736561747320362D36312072654E
:1001F000706F72746564206F66666C696E652E0040
:10020000617661696C61626C65006F6363757069CA
:100210006564003A2000202D3E2073656174200043
:10022000204348004D555820004446506C61796584
:1002300072206E6F7420666F756E643B207365610B
:1002400074206D6F6E69746F72696E672077696C68
:100250006C20636F6E74696E75652E004446506C39
:10026000617965722072656164792E00506C6179E4
:10027000696E6720766F69636520636C6970200022
:10028000566F69636520616C65727420736B697069
:100290007065643A204446506C61796572206973D8
:1002A000206E6F742072656164792E0049676E6FED
:1002B00072656420696E76616C696420564F4943AB
:1002C0004520636F6D6D616E642E00000022002575
:1002D0000028002B002E0031003400020100000530
:1002E0000108010B01000020002300260029002C3A
:1002F000002F003200000100000301060109010582
:10030000050505070508080808020202020A0A088E
:1003100008040404040101010101010101030303B4
:100320000303030303040707070C0C0C0C0C0C0C51
:100330000C0202020206060606060606060B0B0B58
:100340000B0B0B0B0B010210202008081020401093
:100350002040800201020108040201010204081089
:1003600020408080402010080402018004020180A7
:1003700040201008040201080402010102040810D0
:10038000204080010204081020408000000A0B0277
:10039000090C0D0E08070304010000000000000016
:1003A000000000000000000000000000000000004D
:1003B000000000000000001211100000000000000A
:1003C000000000000000000000000000000000002D
:1003D0000000260911241FBECFEFD1E2DEBFCDBF42
:1003E00000E00CBF25E0AEE2B2E001C01D92AB3CE4
:1003F000B207E1F712E0A0E0B2E0EAE3FCE100E0DE
:100400000BBF02C007900D92AE32B107D9F711E0D1
:10041000CAEED1E000E006C021970109802FFE015D
:100420000E94050EC93ED10780E00807A9F70E9487
:10043000BB090C941B0E0C940000CF93DF93EC01CE
:100440009A01AB01E889F98982E08083211581EE68
:1004500038074105510581F160E079E08DE390E0D6
:100460000E94C90D215031094109510956954795FE
:1004700037952795EC85FD851082EE85FF852083D5
:10048000188EEC89FD8986E08083EA89FB8980816A
:1004900080618083EA89FB89808188608083EA8922
:1004A000FB89808180688083EA89FB8980818F7DD8
:1004B0008083DF91CF910895E889F989108220E146
:1004C000D9CF8150823108F05AC0E82FF0E0882758
:1004D000E359FD4F8F4F0C94050E8D0291027F0260
:1004E00085028902BF0294029A029E02A402A80217
:1004F000AC02B202B602BF02BA02C002C4028091CC
:1005000080008F77809380000895809180008F7D98
:10051000F9CF80918000877FF5CF84B58F7784BD38
:10052000089584B58F7DFBCF8091B0008F77809345
:10053000B00008958091B0008F7DF9CF8091900038
:100540008F77809390000895809190008F7DF9CFF0
:1005500080919000877FF5CF8091A0008F77809366
:10056000A00008958091A0008F7DF9CF8091A00018
:10057000877FF5CF809120018F77809320010895A8
:10058000809120018F7DF9CF80912001877FF5CF69
:10059000CF93DF93282F30E0F901E557FC4F84918A
:1005A000F901EB5BFC4FD491F901E150FD4FC4918F
:1005B000CC23A1F081110E946102EC2FF0E0EE0F3C
:1005C000FF1FEB51FD4FA591B491EC91ED2381E01C
:1005D00090E009F480E0DF91CF91089580E090E011
:1005E000FACF1F93CF93DF93282F30E0F901E5571F
:1005F000FC4F8491F901EB5BFC4FD491F901E15080
:10060000FD4FC491CC23A9F0162F81110E946102E5
:10061000EC2FF0E0EE0FFF1FE553FD4FA591B491D5
:100620008FB7F894EC91111108C0D095DE23DC93BC
:100630008FBFDF91CF911F910895DE2BF8CF3FB789
:10064000F8948091C8039091C903A091CA03B09116
:10065000CB0326B5A89B05C02F3F19F00196A11D1D
:10066000B11D3FBFBA2FA92F982F8827BC01CD01FC
:10067000620F711D811D911D42E0660F771F881F5B
:10068000991F4A95D1F708958F929F92AF92BF928A
:10069000CF92DF92EF92FF926B017C010E941F03C9
:1006A0004B015C01C114D104E104F104B9F00E94D2
:1006B0001F03681979098A099B09683E73408105FF
:1006C000910580F321E0C21AD108E108F10888EE13
:1006D000880E83E0981EA11CB11CE4CFFF90EF9020
:1006E000DF90CF90BF90AF909F908F9008952FB7DD
:1006F000F8946091C4037091C5038091C6039091F2
:10070000C7032FBF08952F923F924F925F926F922F
:100710007F928F929F92AF92BF92CF92DF92EF9291
:10072000FF920F931F93CF93DF936B017C010E9485
:1007300077034B015C01C114D104E104F10441F4DD
:10074000C090A905D090AA05E090AB05F090AC054B
:10075000C1E046E0242E53E0352E68E0462E72E0DC
:10076000572EE7E06E2EFAE07F2E04E0D9E015E088
:100770008091A3059091A405DC01ED91FC9100848A
:10078000F185E02D1995892B09F4BCC060E070E07B
:10079000CB010E9444032091C1058091A305909153
:1007A000A405DC01ED91FC910284F385E02D21117B
:1007B0000BC019958093AD058E37D1F68091C10598
:1007C0008F5F8093C105D4CF19959091C105E92F12
:1007D000F0E0ED55FA4F8287923069F1993089F156
:1007E000913059F58F3F49F11092C105C093C3056F
:1007F0001092C6051092C505C093C7051092C80592
:100800000E947703681979098A099B09C616D706D9
:10081000E806F90608F0C3C01092C1051092C3059E
:100820001092C6051092C50581E08093C70510920D
:10083000C80580E06CC08630B9F69F5F9093C10513
:1008400097CF8F3E89F6E091B0058091B20590E098
:100850004091B30550E06091B40570E0762F6627B3
:100860002091B505620F711D2091AF052E0F332722
:10087000331FF091B1052F0F311D280F391F240FA1
:10088000351FF091AE052F0F311D3195219531099E
:100890006217730709F0A8CF1092C105E13419F46B
:1008A0001092C8052FC0E093C405982F8827480FE1
:1008B000591F5093C6054093C505EA53E63108F029
:1008C00065C0F0E08827E859FB4F8F4F0C94050E68
:1008D000AB04B5047E047E04C2049A04BF04C604BB
:1008E000C204C204C204C204C204C204C204C204D8
:1008F000C604C204C204C204C204C2041093C305E5
:10090000C093C7058091C705882309F479CFDF918B
:10091000CF911F910F91FF90EF90DF90CF90BF90FC
:10092000AF909F908F907F906F905F904F903F908F
:100930002F90089540FF03C0D093C305E1CF41FF3E
:1009400003C00093C305DCCF43705527452BD1F27C
:100950007092C305D5CF40FF03C06092C305D0CFCE
:1009600041FFD0CF5092C305CBCF40FF03C0409290
:10097000C305C6CF41FFC6CF3092C305C1CF209279
:10098000C305BECFBBE0B093C305BACFC093C305C8
:100990001092C6051092C505C093C70581CF60E0CF
:1009A00070E0CB010E944403E3CE8093BA05272F69
:1009B00030E07093BC056093BD054091B9059091FE
:1009C000B805490F5527551F840F952F911D40914C
:1009D000BB05840F911D820F931F680F792F711D26
:1009E0007195619571097093BE056093BF054423AD
:1009F00079F08091C805882359F060E070E0CB0160
:100A00000E94440360E070E0CB010E948303F1CFB9
:100A10008091A3059091A405DC01ED91FC910280E9
:100A2000F381E02D4AE050E067EB75E019950E94F4
:100A300077036093A5057093A6058093A70590930F
:100A4000A8058091BB0591E0811101C090E09093D1
:100A5000C805811106C06AE070E080E090E00C9467
:100A600044030895AF92BF92CF92DF92EF92FF922C
:100A70000F931F93CF93DF936C017B018B01040FC6
:100A8000151FEB015E01AE18BF08C017D10759F062
:100A90006991D601ED91FC910190F081E02DC601A4
:100AA0001995892B79F7C501DF91CF911F910F918E
:100AB000FF90EF90DF90CF90BF90AF900895FC0132
:100AC000A089B1898C91A689B78982FD0FC09C91BC
:100AD000818D8F5F8F73228D821749F0A18DAE0FAC
:100AE000BF2FB11D5D969C93818F08958C910895C1
:100AF000FC01538D448D252F30E0842F90E0821B24
:100B0000930B541710F0CF96089501970895FC01A8
:100B1000918D828D981761F0A28DAE0FBF2FB11D00
:100B20005D968C91928D9F5F9F73928F90E0089558
:100B30008FEF9FEF0895FC01918D828D981731F012
:100B4000828DE80FF11D858D90E008958FEF9FEF66
:100B50000895FC01918D228D892F90E0805C9F4F3C
:100B6000821B91098F73992708958CEC93E00E9462
:100B7000A90521E0892B09F420E0822F089589E658
:100B800094E00E94A90521E0892B09F420E0822F3E
:100B9000089586E095E00E94A90521E0892B09F4DB
:100BA00020E0822F0895FC01A48DA80FB92FB11D5C
:100BB000A35ABF4F2C91848D90E001968F73992793
:100BC000848FA689B7892C93A089B1898C91837071
:100BD00080648C93938D848D981306C00288F3896A
:100BE000E02D80818F7D80830895EF92FF920F9397
:100BF0001F93CF93DF93EC0181E0888F9B8D8C8DC9
:100C000098131AC0E889F989808185FF15C09FB7BC
:100C1000F894EE89FF896083E889F989808183707F
:100C2000806480839FBF81E090E0DF91CF911F912E
:100C30000F91FF90EF900895F62E0B8D10E00F5F4F
:100C40001F4F0F731127E02E8C8D8E110CC00FB625
:100C500007FCFACFE889F989808185FFF5CFCE01BD
:100C60000E94D305F1CFEB8DEC0FFD2FF11DE35A60
:100C7000FF4FF0829FB7F8940B8FEA89FB89808140
:100C80008062CFCFEF92FF920F931F93CF93DF93AA
:100C90008C017B01D0E0C0E0F701EC0FFD1F6491F7
:100CA000662339F0C8010E94F505892B11F02196C1
:100CB000F3CFCE01DF91CF911F910F91FF90EF9075
:100CC0000895CF93DF93EC01888D8823B9F0AA892A
:100CD000BB89E889F9898C9185FD03C0808186FDF7
:100CE0000DC00FB607FCF7CF8C9185FFF2CF808146
:100CF00085FFEDCFCE010E94D305E9CFDF91CF91E3
:100D0000089580E090E0892B29F00E94C9058111A7
:100D10000E94000080E090E0892B29F00E94BF052E
:100D200081110E94000080E090E0892B29F00E9450
:100D3000B50581110E94000080E090E0892B49F008
:100D400080E090E0892B29F00E94000081110C9432
:100D500000000895CF92DF92EF92FF921F93CF93FE
:100D6000DF93182F12951F708F709EE0C92E92E0AE
:100D7000D92EF12CE12CC82FD0E0BE010E2C02C0E0
:100D8000769567950A94E2F76170F60181916F019B
:100D90000E94F102FFEFEF1AFF0A84E0E816F10467
:100DA00061F78BEA94E00197F1F7E12FF0E0E65F5D
:100DB000FD4F1081812F0E94C802D7E0C0E08BE870
:100DC000E82EFF24F394C7010197F1F7812F0E94C9
:100DD000C802892B09F4CF5FD150A9F781E0C43054
:100DE00008F480E0DF91CF911F91FF90EF90DF90AA
:100DF000CF9008958F929F92AF92BF92EF92FF9201
:100E00000F931F93CF93DF93CDB7DEB7A1970FB6A4
:100E1000F894DEBF0FBECDBF7C01FA01CB0119A251
:100E2000223008F42AE08E010F5D1F4F822E912C94
:100E3000B12CA12CBF01A50194010E94C90DF9019B
:100E4000CA016A304CF5605DD8016E938D01232B89
:100E5000242B252B79F790E080E0109761F0FD01BD
:100E600001900020E9F73197AF014A1B5B0BBD01F0
:100E7000C7010E943205A1960FB6F894DEBF0FBEDF
:100E8000CDBFDF91CF911F910F91FF90EF90BF9059
:100E9000AF909F908F900895695CD6CFCF92DF92EC
:100EA000EF92FF92CF93DF93AB01BC0177FF1DC0A0
:100EB0006A017C016DE286E095E00E94F505EC0197
:100EC00044275527BA014C195D096E097F092AE0AC
:100ED00086E095E00E94FA068C0F9D1FDF91CF916E
:100EE000FF90EF90DF90CF9008952AE086E095E0A4
:100EF000DF91CF91FF90EF90DF90CF900C94FA06A6
:100F000042E050E064E272E00C9432050F931F93CC
:100F1000CF93DF93EC010E9442068C01CE010E9428
:100F20008007800F911FDF91CF911F910F9108953E
:100F3000CF92DF92EF92FF92CF93C82EC62F6CE82C
:100F400071E089E694E00E944206C394D12CF12C12
:100F5000E12C2AE0B701A60189E694E00E94FA0696
:100F60006CE289E694E00E94F50565E771E0CC2328
:100F700011F06FE771E089E694E00E94860766E869
:100F800071E086E095E00E9442062AE0B701A601E2
:100F900086E095E00E94FA066CE286E095E00E9409
:100FA000F50564E671E0CC2311F06EE671E086E0B1
:100FB00095E0CF91FF90EF90DF90CF900C94860753
:100FC0001F920F920FB60F9211242F933F938F937E
:100FD0009F93AF93BF938091C4039091C503A09159
:100FE000C603B091C7033091C30323E0230F2D370D
:100FF00058F50196A11DB11D2093C3038093C4032E
:101000009093C503A093C603B093C7038091C80310
:101010009091C903A091CA03B091CB030196A11D81
:10102000B11D8093C8039093C903A093CA03B093E2
:10103000CB03BF91AF919F918F913F912F910F90D3
:101040000FBE0F901F90189526E8230F0296A11D42
:10105000B11DD2CF1F920F920FB60F9211240BB673
:101060000F922F933F934F935F936F937F938F9341
:101070009F93AF93BF93EF93FF938CEC93E00E9409
:10108000D305FF91EF91BF91AF919F918F917F9188
:101090006F915F914F913F912F910F900BBE0F90E9
:1010A0000FBE0F901F9018951F920F920FB60F92C0
:1010B00011240BB60F922F933F934F935F936F932F
:1010C0007F938F939F93AF93BF93EF93FF938CEC9A
:1010D00093E00E945F05FF91EF91BF91AF919F91C7
:1010E0008F917F916F915F914F913F912F910F90D1
:1010F0000BBE0F900FBE0F901F9018951F920F926E
:101100000FB60F9211240BB60F922F933F934F936C
:101110005F936F937F938F939F93AF93BF93EF935F
:10112000FF9389E694E00E94D305FF91EF91BF9170
:10113000AF919F918F917F916F915F914F913F916F
:101140002F910F900BBE0F900FBE0F901F90189510
:101150001F920F920FB60F9211240BB60F922F937E
:101160003F934F935F936F937F938F939F93AF932F
:10117000BF93EF93FF9389E694E00E945F05FF9190
:10118000EF91BF91AF919F918F917F916F915F91FF
:101190004F913F912F910F900BBE0F900FBE0F906C
:1011A0001F9018951F920F920FB60F9211240BB635
:1011B0000F922F933F934F935F936F937F938F93F0
:1011C0009F93AF93BF93EF93FF9386E095E00E94C8
:1011D000D305FF91EF91BF91AF919F918F917F9137
:1011E0006F915F914F913F912F910F900BBE0F9098
:1011F0000FBE0F901F9018951F920F920FB60F926F
:1012000011240BB60F922F933F934F935F936F93DD
:101210007F938F939F93AF93BF93EF93FF9386E05A
:1012200095E00E945F05FF91EF91BF91AF919F9173
:101230008F917F916F915F914F913F912F910F907F
:101240000BBE0F900FBE0F901F901895CF93DF939A
:10125000ECECF3E01382128248EE53E060E070E0C1
:10126000448355836683778386E192E0918380830C
:1012700025ED30E03587248724ED30E03787268759
:1012800020ED30E0318B208B21ED30E0338B228B51
:1012900022ED30E0358B248B26ED30E0378B268B2A
:1012A000118E128E138E148EE9E6F4E013821282F0
:1012B0004483558366837783918380832DEC30E06C
:1012C000358724872CEC30E03787268728EC30E000
:1012D000318B208B29EC30E0338B228B2AEC30E0F1
:1012E000358B248B2EEC30E0378B268B118E128EB3
:1012F000138E148EE6E0F5E0138212824483558348
:10130000668377839183808385EC90E095878487DB
:1013100084EC90E09787868780EC90E0918B808BBF
:1013200081EC90E0938B828B82EC90E0958B848BA8
:1013300086EC90E0978B868B118E128E138E148E16
:10134000C3EAD5E084EF91E0A0E0B0E08E839F8314
:10135000A887B9878AE0E0E0F2E0A7EBB5E001906A
:101360000D928A95E1F71E8E82E08F8F1CA21DA23E
:10137000DF91CF910895CF93DF9300D000D0CDB708
:10138000DEB7789484B5826084BD84B5816084BD05
:1013900085B5826085BD85B5816085BD80916E0013
:1013A000816080936E001092810080918100826044
:1013B0008093810080918100816080938100809181
:1013C00080008160809380008091B1008460809370
:1013D000B1008091B00081608093B0008091910055
:1013E0008260809391008091910081608093910050
:1013F000809190008160809390008091A100826034
:101400008093A1008091A10081608093A1008091D0
:10141000A00081608093A000809121018260809370
:10142000210180912101816080932101809120011F
:1014300081608093200180917A00846080937A009B
:1014400080917A00826080937A0080917A00816036
:1014500080937A0080917A00806880937A0010925D
:10146000C10040E052EC61E070E086E095E00E944F
:101470001D0240E855E260E070E089E694E00E94D9
:101480001D0240E855E260E070E08CEC93E00E94C1
:101490001D020EE012E0A2E1EA2EA2E0FA2EF8010F
:1014A00081918F01282F30E0F901EB5BFC4F949183
:1014B00021503D4FF9012491222399F030E0220F71
:1014C000331FF901EE56FE4FA591B491F901E55392
:1014D000FD4F259134912FB7F894EC919E2B9C935E
:1014E0002FBF60E00E94F102E016F106C1F6AAE00B
:1014F000B2E02EE032E08D9190E0FC01EB5BFC4F1E
:10150000449181509D4FFC0184918823D1F090E05B
:10151000880F991FFC01EE56FE4F65917491FC01F6
:10152000E553FD4F059114919FB7F894FB0150814D
:10153000842F809585238083F8018081482B408308
:101540009FBF2A173B07B9F66AE070E080E090E0A1
:101550000E9444038CEC93E09093A4058093A30530
:1015600081E08093BB0570E060E08CE00E94D504D0
:1015700060ED77E080E090E00E94830368EC70E02B
:1015800080E090E00E9444031092C7058091C3055B
:10159000843009F0E2C081E080932E0284EF91E074
:1015A000A0E0B0E08093A9059093AA05A093AB05B5
:1015B000B093AC0564E170E086E00E94D5046CE570
:1015C00072E086E095E00E9486070E9477034B0157
:1015D0005C0146E8C42E43E0D42E55E5E52E52E0EA
:1015E000F52E62E9262E62E0362E412C512C320176
:1015F000439410E0F10181929192A192B1921F0166
:10160000153008F0B2C0812F0E94AA06F70180832E
:10161000F601808364E272E086E095E00E94420673
:1016200061E070E080E090E00E944E0760E272E0CE
:1016300086E095E00E944206C301B2016150710943
:10164000810991090E944E0766E172E086E095E00B
:101650000E944206C301B2010E944E0763E172E09C
:1016600086E095E00E944206F70180816AE072E020
:10167000811102C060E072E086E095E00E9486077A
:10168000F7016081812F0E9498071F5FFFEFEF1A1B
:10169000FF0A2FEFC21AD20A3FEF431A530A630A16
:1016A000730A1D3309F0A6CF6AEC71E086E095E07D
:1016B0000E94860701E089E694E00E94A9051816B9
:1016C00019060CF0A9C089E694E00E9487058D30C8
:1016D00091F3909150028A3009F08CC0911138C07A
:1016E000E0914F02EE23A1F1F0E0E15DFD4F1082A9
:1016F00046E050E067E272E08FE292E00E940D0E59
:10170000892B31F51A8219824AE050E0BE016F5FE1
:101710007F4F85E392E00E947F0C6B017C01E981A1
:10172000FA8142E0E533F40769F0808181110AC053
:10173000D701C6010197A109B1098F3F9105A10504
:10174000B105F0F16CEA72E086E095E00E94860750
:1017500010924F0210925002AECF893009F41BCF85
:1017600010922E0269E272E02CCFF7011082F6018E
:10177000108264EC71E089E694E00E9442062AE05F
:10178000B301A20189E694E00E94FA066BEB71E0D6
:1017900089E694E00E94860765EB71E086E095E0BB
:1017A0000E9442062AE0B301A20186E095E00E9471
:1017B000FA066CEA71E086E095E00E94860765CF44
:1017C00080912E02811103C060E872E0BDCFB601A6
:1017D00082E10E94D5046CE672E086E095E00E940A
:1017E0004206C701B6010E944E0786E095E00E94BE
:1017F0008007AECF91115FCFE0914F02EF3148F4F7
:1018000091E09E0F90934F02F0E0E15DFD4F8083E9
:1018100052CF009350024FCF0E9477032B013C011F
:1018200095E5E92E92E0F92E22E9C22E22E0D22E91
:1018300036E8232E33E0332E10E0812F0E94AA06D3
:10184000F10191911F018917F1F131978083F60120
:1018500040825182628273821F5FF4E0CF0ED11CFE
:101860002FEFE21AF20A153041F780915102909160
:101870005202A0915302B091540253014201881ABE
:10188000990AAA0ABB0AD501C40180329E44A10567
:10189000B105B0F040925102509252026092530250
:1018A0007092540285E5E82E82E0F82E10E0F701F0
:1018B00061917F01812F0E9498071F5F1530B9F752
:1018C0000E948106F8CEF7019081891729F2F6016E
:1018D00080809180A280B380A301920128193909E8
:1018E0004A095B09243B31054105510508F4B4CF91
:1018F000F7018083682F812F0E949807ADCF3F9218
:101900004F925F926F927F928F929F92AF92BF920F
:10191000CF92DF92EF92FF920F931F93CF93DF93BB
:101920005C016B017A016115710519F0FB0191836E
:101930008083E114F10451F0C7010297839730F0DE
:1019400040E030E020E090E06BC05E01E5012196D0
:10195000F5011081812F90E00E94AD0D892BA9F730
:101960001D3201F52196F501118101E0E114F10428
:1019700009F4E6C0F0E1EF16F10409F088C0103375
:1019800059F488818F7D883509F07CC019812296B1
:101990000260F0E1EF2EF12C812C912CA12C88E03B
:1019A000B82E92C01B3221F4E5012296F501118177
:1019B00000E0DCCFEAE0EE16F10409F4C7C0F0E184
:1019C000EF16F10409F073C0E7CF78E0E72EF12CB1
:1019D000812C912CA12C60E1B62E76C021E0ADC007
:1019E000302F3170C114D10431F0222371F12197CD
:1019F000F601D183C08327FF2EC060E070E080E055
:101A000090E8311104C06FEF7FEF8FEF9FE722E284
:101A100030E03093CA052093C905462F372F282F71
:101A2000642F732F822FDF91CF911F910F91FF9021
:101A3000EF90DF90CF90BF90AF909F908F907F906E
:101A40006F905F904F903F90089501FF04C02297E0
:101A5000F601D183C083332341F090958095709532
:101A600061957F4F8F4F9F4FD8CF97FFD6CF82E2A0
:101A700090E09093CA058093C9056FEF7FEF8FEFD9
:101A80009FE7CBCF10E3E114F10409F49ECF28E0E7
:101A9000E216F10409F49CCF0CF08CCF812C912C30
:101AA000A12CE0E4BE2E82E0E816F10469F060E0CB
:101AB00070E080E090E897010F2C000C440B550B70
:101AC0000E94C90D49015A0120E060E070E0CB019D
:101AD00027010F2C000C66087708FE0150ED352E0B
:101AE000310E39E0331570F43FEB310F49EC342EF1
:101AF0003A3138F03FE9310F3A3108F071CF39EA25
:101B0000332E310E3E141F040CF06ACF27FD15C092
:101B100086169706A806B90678F0A30192010E94DE
:101B2000B90D630D711D811D911D61307105810518
:101B300020E8920708F452CF2FEF21961081CDCFE5
:101B4000103309F41ECF2AE0E22EF12C9CEC892EF2
:101B5000982CA82C9CE0B92EB7CF91110C94B60DFF
:101B6000803219F089508550C8F708959927882741
:101B70000895DB018F939F930E94EB0DBF91AF916E
:101B8000A29F800D911DA39F900DB29F900D1124D7
:101B90000895A1E21A2EAA1BBB1BFD010DC0AA1FAE
:101BA000BB1FEE1FFF1FA217B307E407F50720F0C6
:101BB000A21BB30BE40BF50B661F771F881F991F41
:101BC0001A9469F760957095809590959B01AC018A
:101BD000BD01CF0108950E94F60DA59F900DB49F01
:101BE000900DA49F800D911D11240895A29FB00116
:101BF000B39FC001A39F700D811D1124911DB29F41
:101C0000700D811D1124911D0895EE0FFF1F881F77
:101C10008BBF0790F691E02D1994FB01DC01415038
:101C2000504030F08D910190801919F40020B9F7DF
:0A1C3000881B990B0895F894FFCF6C
:101C3A007EFF06000100000000EF3637383916171C
:101C4A00181900000000F505320578056106A90596
:0E1C5A0087059B050D0A00564F4943452C0097
:00000001FF
